{
  "_format": "hh-sol-artifact-1",
  "contractName": "ICOPlatform",
  "sourceName": "contracts/ICOPlatform.sol",
  "abi": [
    {
      "inputs": [],
      "stateMutability": "nonpayable",
      "type": "constructor"
    },
    {
      "anonymous": false,
      "inputs": [
        {
          "indexed": false,
          "internalType": "uint256",
          "name": "number",
          "type": "uint256"
        },
        {
          "indexed": false,
          "internalType": "string",
          "name": "message",
          "type": "string"
        }
      ],
      "name": "Log",
      "type": "event"
    },
    {
      "inputs": [
        {
          "internalType": "uint256",
          "name": "_usdtAmount",
          "type": "uint256"
        },
        {
          "internalType": "address",
          "name": "_token",
          "type": "address"
        }
      ],
      "name": "buyTokens",
      "outputs": [],
      "stateMutability": "nonpayable",
      "type": "function"
    },
    {
      "inputs": [
        {
          "internalType": "address",
          "name": "_token",
          "type": "address"
        }
      ],
      "name": "getClosingTime",
      "outputs": [
        {
          "internalType": "uint256",
          "name": "",
          "type": "uint256"
        }
      ],
      "stateMutability": "view",
      "type": "function"
    },
    {
      "inputs": [
        {
          "internalType": "address",
          "name": "_token",
          "type": "address"
        }
      ],
      "name": "getListedTokenDetails",
      "outputs": [
        {
          "components": [
            {
              "internalType": "address",
              "name": "owner",
              "type": "address"
            },
            {
              "internalType": "uint256",
              "name": "rate",
              "type": "uint256"
            },
            {
              "internalType": "uint256",
              "name": "closingTime",
              "type": "uint256"
            }
          ],
          "internalType": "struct ICOPlatform.ICOEntry",
          "name": "",
          "type": "tuple"
        }
      ],
      "stateMutability": "view",
      "type": "function"
    },
    {
      "inputs": [],
      "name": "getListedTokens",
      "outputs": [
        {
          "internalType": "address[]",
          "name": "",
          "type": "address[]"
        }
      ],
      "stateMutability": "view",
      "type": "function"
    },
    {
      "inputs": [
        {
          "internalType": "address",
          "name": "_token",
          "type": "address"
        }
      ],
      "name": "hasClosed",
      "outputs": [
        {
          "internalType": "bool",
          "name": "",
          "type": "bool"
        }
      ],
      "stateMutability": "view",
      "type": "function"
    },
    {
      "inputs": [
        {
          "internalType": "address",
          "name": "_token",
          "type": "address"
        },
        {
          "internalType": "address",
          "name": "_owner",
          "type": "address"
        },
        {
          "internalType": "uint256",
          "name": "_rate",
          "type": "uint256"
        },
        {
          "internalType": "uint256",
          "name": "_closingTime",
          "type": "uint256"
        }
      ],
      "name": "listTokenForICO",
      "outputs": [],
      "stateMutability": "nonpayable",
      "type": "function"
    },
    {
      "inputs": [
        {
          "internalType": "uint256",
          "name": "",
          "type": "uint256"
        }
      ],
      "name": "listedTokens",
      "outputs": [
        {
          "internalType": "address",
          "name": "",
          "type": "address"
        }
      ],
      "stateMutability": "view",
      "type": "function"
    },
    {
      "inputs": [],
      "name": "uniswapRouter",
      "outputs": [
        {
          "internalType": "contract IUniswapV2Router02",
          "name": "",
          "type": "address"
        }
      ],
      "stateMutability": "view",
      "type": "function"
    },
    {
      "inputs": [
        {
          "internalType": "address",
          "name": "_token",
          "type": "address"
        }
      ],
      "name": "withdrawTokens",
      "outputs": [],
      "stateMutability": "nonpayable",
      "type": "function"
    }
  ],
  "bytecode": "0x608060405234801561001057600080fd5b50735cd4d8b19d72e2b4eb5cda1a7740feb36ad244ff6000806101000a81548173ffffffffffffffffffffffffffffffffffffffff021916908373ffffffffffffffffffffffffffffffffffffffff160217905550600a600281905550737a250d5630b4cf539739df2c5dacb4c659f2488d600360006101000a81548173ffffffffffffffffffffffffffffffffffffffff021916908373ffffffffffffffffffffffffffffffffffffffff160217905550612396806100d16000396000f3fe608060405234801561001057600080fd5b50600436106100935760003560e01c806354f373521161006657806354f37352146101325780635a9d1ac314610162578063735de9f714610192578063c625e9b1146101b0578063ebfefa7c146101cc57610093565b80631b0949e0146100985780632ba996a5146100c85780633ed9d4f8146100e657806349df728c14610116575b600080fd5b6100b260048036038101906100ad91906115eb565b6101e8565b6040516100bf9190611fdf565b60405180910390f35b6100d06102b9565b6040516100dd9190611d8c565b60405180910390f35b61010060048036038101906100fb91906115eb565b610347565b60405161010d9190611dae565b60405180910390f35b610130600480360381019061012b91906115eb565b61041a565b005b61014c600480360381019061014791906115eb565b610624565b6040516101599190611fc4565b60405180910390f35b61017c600480360381019061017791906116e1565b6106e7565b6040516101899190611ce8565b60405180910390f35b61019a610726565b6040516101a79190611dc9565b60405180910390f35b6101ca60048036038101906101c59190611733565b61074c565b005b6101e660048036038101906101e19190611614565b6110fa565b005b600080600460008473ffffffffffffffffffffffffffffffffffffffff1673ffffffffffffffffffffffffffffffffffffffff16815260200190815260200160002060020154141561026f576040517f08c379a000000000000000000000000000000000000000000000000000000000815260040161026690611e64565b60405180910390fd5b600460008373ffffffffffffffffffffffffffffffffffffffff1673ffffffffffffffffffffffffffffffffffffffff168152602001908152602001600020600201549050919050565b6060600680548060200260200160405190810160405280929190818152602001828054801561033d57602002820191906000526020600020905b8160009054906101000a900473ffffffffffffffffffffffffffffffffffffffff1673ffffffffffffffffffffffffffffffffffffffff16815260200190600101908083116102f3575b5050505050905090565b600080600460008473ffffffffffffffffffffffffffffffffffffffff1673ffffffffffffffffffffffffffffffffffffffff1681526020019081526020016000206002015414156103ce576040517f08c379a00000000000000000000000000000000000000000000000000000000081526004016103c590611e64565b60405180910390fd5b600460008373ffffffffffffffffffffffffffffffffffffffff1673ffffffffffffffffffffffffffffffffffffffff1681526020019081526020016000206002015442119050919050565b61042381610347565b610462576040517f08c379a000000000000000000000000000000000000000000000000000000000815260040161045990611ee4565b60405180910390fd5b6000600560003373ffffffffffffffffffffffffffffffffffffffff1673ffffffffffffffffffffffffffffffffffffffff168152602001908152602001600020549050600081116104e9576040517f08c379a00000000000000000000000000000000000000000000000000000000081526004016104e090611f24565b60405180910390fd5b6000600560003373ffffffffffffffffffffffffffffffffffffffff1673ffffffffffffffffffffffffffffffffffffffff168152602001908152602001600020819055508173ffffffffffffffffffffffffffffffffffffffff166323b872dd600460008573ffffffffffffffffffffffffffffffffffffffff1673ffffffffffffffffffffffffffffffffffffffff16815260200190815260200160002060000160009054906101000a900473ffffffffffffffffffffffffffffffffffffffff1633846040518463ffffffff1660e01b81526004016105cd93929190611d2c565b602060405180830381600087803b1580156105e757600080fd5b505af11580156105fb573d6000803e3d6000fd5b505050506040513d601f19601f8201168201806040525081019061061f91906116b8565b505050565b61062c6114ca565b600460008373ffffffffffffffffffffffffffffffffffffffff1673ffffffffffffffffffffffffffffffffffffffff1681526020019081526020016000206040518060600160405290816000820160009054906101000a900473ffffffffffffffffffffffffffffffffffffffff1673ffffffffffffffffffffffffffffffffffffffff1673ffffffffffffffffffffffffffffffffffffffff168152602001600182015481526020016002820154815250509050919050565b600681815481106106f757600080fd5b906000526020600020016000915054906101000a900473ffffffffffffffffffffffffffffffffffffffff1681565b600360009054906101000a900473ffffffffffffffffffffffffffffffffffffffff1681565b600073ffffffffffffffffffffffffffffffffffffffff16600460008373ffffffffffffffffffffffffffffffffffffffff1673ffffffffffffffffffffffffffffffffffffffff16815260200190815260200160002060000160009054906101000a900473ffffffffffffffffffffffffffffffffffffffff1673ffffffffffffffffffffffffffffffffffffffff16141561081e576040517f08c379a000000000000000000000000000000000000000000000000000000000815260040161081590611f84565b60405180910390fd5b6000600460008373ffffffffffffffffffffffffffffffffffffffff1673ffffffffffffffffffffffffffffffffffffffff1681526020019081526020016000206040518060600160405290816000820160009054906101000a900473ffffffffffffffffffffffffffffffffffffffff1673ffffffffffffffffffffffffffffffffffffffff1673ffffffffffffffffffffffffffffffffffffffff1681526020016001820154815260200160028201548152505090506108df82610347565b1561091f576040517f08c379a000000000000000000000000000000000000000000000000000000000815260040161091690611fa4565b60405180910390fd5b600073ffffffffffffffffffffffffffffffffffffffff163373ffffffffffffffffffffffffffffffffffffffff16141561098f576040517f08c379a000000000000000000000000000000000000000000000000000000000815260040161098690611e84565b60405180910390fd5b600083116109d2576040517f08c379a00000000000000000000000000000000000000000000000000000000081526004016109c990611ec4565b60405180910390fd5b60008060009054906101000a900473ffffffffffffffffffffffffffffffffffffffff1673ffffffffffffffffffffffffffffffffffffffff1663dd62ed3e33306040518363ffffffff1660e01b8152600401610a30929190611d03565b60206040518083038186803b158015610a4857600080fd5b505afa158015610a5c573d6000803e3d6000fd5b505050506040513d601f19601f82011682018060405250810190610a80919061170a565b905083811015610ac5576040517f08c379a0000000000000000000000000000000000000000000000000000000008152600401610abc90611f04565b60405180910390fd5b6000600a85610ad49190612151565b905060008186610ae491906121dc565b90506000846020015182610af89190612182565b905060008673ffffffffffffffffffffffffffffffffffffffff1663dd62ed3e8760000151306040518363ffffffff1660e01b8152600401610b3b929190611d03565b60206040518083038186803b158015610b5357600080fd5b505afa158015610b67573d6000803e3d6000fd5b505050506040513d601f19601f82011682018060405250810190610b8b919061170a565b905081811015610bd0576040517f08c379a0000000000000000000000000000000000000000000000000000000008152600401610bc790611e24565b60405180910390fd5b8760016000828254610be291906120fb565b9250508190555081600560003373ffffffffffffffffffffffffffffffffffffffff1673ffffffffffffffffffffffffffffffffffffffff16815260200190815260200160002054610c3491906120fb565b600560003373ffffffffffffffffffffffffffffffffffffffff1673ffffffffffffffffffffffffffffffffffffffff1681526020019081526020016000208190555060008054906101000a900473ffffffffffffffffffffffffffffffffffffffff1673ffffffffffffffffffffffffffffffffffffffff166323b872dd3330876040518463ffffffff1660e01b8152600401610cd493929190611d2c565b602060405180830381600087803b158015610cee57600080fd5b505af1158015610d02573d6000803e3d6000fd5b505050506040513d601f19601f82011682018060405250810190610d2691906116b8565b610d65576040517f08c379a0000000000000000000000000000000000000000000000000000000008152600401610d5c90611e44565b60405180910390fd5b60008054906101000a900473ffffffffffffffffffffffffffffffffffffffff1673ffffffffffffffffffffffffffffffffffffffff166323b872dd338860000151866040518463ffffffff1660e01b8152600401610dc693929190611d2c565b602060405180830381600087803b158015610de057600080fd5b505af1158015610df4573d6000803e3d6000fd5b505050506040513d601f19601f82011682018060405250810190610e1891906116b8565b610e57576040517f08c379a0000000000000000000000000000000000000000000000000000000008152600401610e4e90611ea4565b60405180910390fd5b60008054906101000a900473ffffffffffffffffffffffffffffffffffffffff1673ffffffffffffffffffffffffffffffffffffffff1663095ea7b3737a250d5630b4cf539739df2c5dacb4c659f2488d866040518363ffffffff1660e01b8152600401610ec6929190611d63565b602060405180830381600087803b158015610ee057600080fd5b505af1158015610ef4573d6000803e3d6000fd5b505050506040513d601f19601f82011682018060405250810190610f1891906116b8565b610f57576040517f08c379a0000000000000000000000000000000000000000000000000000000008152600401610f4e90611e04565b60405180910390fd5b6000600f42610f6691906120fb565b90506000600360009054906101000a900473ffffffffffffffffffffffffffffffffffffffff1673ffffffffffffffffffffffffffffffffffffffff166338ed1739876001610fb361133b565b30876040518663ffffffff1660e01b8152600401610fd5959493929190611ffa565b600060405180830381600087803b158015610fef57600080fd5b505af1158015611003573d6000803e3d6000fd5b505050506040513d6000823e3d601f19601f8201168201806040525081019061102c9190611677565b905073dfb27e296f5b82f06c1b2b3b4ec94e76b0e85d6d73ffffffffffffffffffffffffffffffffffffffff166342966c6882600181518110611098577f4e487b7100000000000000000000000000000000000000000000000000000000600052603260045260246000fd5b60200260200101516040518263ffffffff1660e01b81526004016110bc9190611fdf565b600060405180830381600087803b1580156110d657600080fd5b505af11580156110ea573d6000803e3d6000fd5b5050505050505050505050505050565b80421061113c576040517f08c379a000000000000000000000000000000000000000000000000000000000815260040161113390611f44565b60405180910390fd5b6000600460008673ffffffffffffffffffffffffffffffffffffffff1673ffffffffffffffffffffffffffffffffffffffff16815260200190815260200160002060010154146111c1576040517f08c379a00000000000000000000000000000000000000000000000000000000081526004016111b890611de4565b60405180910390fd5b60008211611204576040517f08c379a00000000000000000000000000000000000000000000000000000000081526004016111fb90611f64565b60405180910390fd5b60405180606001604052808473ffffffffffffffffffffffffffffffffffffffff16815260200183815260200182815250600460008673ffffffffffffffffffffffffffffffffffffffff1673ffffffffffffffffffffffffffffffffffffffff16815260200190815260200160002060008201518160000160006101000a81548173ffffffffffffffffffffffffffffffffffffffff021916908373ffffffffffffffffffffffffffffffffffffffff16021790555060208201518160010155604082015181600201559050506006849080600181540180825580915050600190039060005260206000200160009091909190916101000a81548173ffffffffffffffffffffffffffffffffffffffff021916908373ffffffffffffffffffffffffffffffffffffffff16021790555050505050565b60606000600267ffffffffffffffff811115611380577f4e487b7100000000000000000000000000000000000000000000000000000000600052604160045260246000fd5b6040519080825280602002602001820160405280156113ae5781602001602082028036833780820191505090505b509050735cd4d8b19d72e2b4eb5cda1a7740feb36ad244ff81600081518110611400577f4e487b7100000000000000000000000000000000000000000000000000000000600052603260045260246000fd5b602002602001019073ffffffffffffffffffffffffffffffffffffffff16908173ffffffffffffffffffffffffffffffffffffffff168152505073dfb27e296f5b82f06c1b2b3b4ec94e76b0e85d6d81600181518110611489577f4e487b7100000000000000000000000000000000000000000000000000000000600052603260045260246000fd5b602002602001019073ffffffffffffffffffffffffffffffffffffffff16908173ffffffffffffffffffffffffffffffffffffffff16815250508091505090565b6040518060600160405280600073ffffffffffffffffffffffffffffffffffffffff16815260200160008152602001600081525090565b600061151461150f84612085565b612054565b9050808382526020820190508285602086028201111561153357600080fd5b60005b85811015611563578161154988826115d6565b845260208401935060208301925050600181019050611536565b5050509392505050565b60008135905061157c8161231b565b92915050565b600082601f83011261159357600080fd5b81516115a3848260208601611501565b91505092915050565b6000815190506115bb81612332565b92915050565b6000813590506115d081612349565b92915050565b6000815190506115e581612349565b92915050565b6000602082840312156115fd57600080fd5b600061160b8482850161156d565b91505092915050565b6000806000806080858703121561162a57600080fd5b60006116388782880161156d565b94505060206116498782880161156d565b935050604061165a878288016115c1565b925050606061166b878288016115c1565b91505092959194509250565b60006020828403121561168957600080fd5b600082015167ffffffffffffffff8111156116a357600080fd5b6116af84828501611582565b91505092915050565b6000602082840312156116ca57600080fd5b60006116d8848285016115ac565b91505092915050565b6000602082840312156116f357600080fd5b6000611701848285016115c1565b91505092915050565b60006020828403121561171c57600080fd5b600061172a848285016115d6565b91505092915050565b6000806040838503121561174657600080fd5b6000611754858286016115c1565b92505060206117658582860161156d565b9150509250929050565b600061177b8383611787565b60208301905092915050565b61179081612210565b82525050565b61179f81612210565b82525050565b60006117b0826120c1565b6117ba81856120d9565b93506117c5836120b1565b8060005b838110156117f65781516117dd888261176f565b97506117e8836120cc565b9250506001810190506117c9565b5085935050505092915050565b61180c81612222565b82525050565b61181b81612258565b82525050565b61182a8161227c565b82525050565b600061183d601d836120ea565b91507f5468697320746f6b656e20697320616c7265616479206c6973746564210000006000830152602082019050919050565b600061187d6017836120ea565b91507f556e697377617020617070726f7665206661696c65642e0000000000000000006000830152602082019050919050565b60006118bd6017836120ea565b91507f4e6f7420656e6f75676820746f6b656e73206c6566742e0000000000000000006000830152602082019050919050565b60006118fd6014836120ea565b91507f466565207472616e73666572206661696c65642e0000000000000000000000006000830152602082019050919050565b600061193d601b836120ea565b91507f546f6b656e2073616c6520646f6573206e6f74206578697374732e00000000006000830152602082019050919050565b600061197d6024836120ea565b91507f42656e65666963696172792063616e27742062652061207a65726f206164647260008301527f65737321000000000000000000000000000000000000000000000000000000006020830152604082019050919050565b60006119e36018836120ea565b91507f5061796d656e74207472616e73666572206661696c65642e00000000000000006000830152602082019050919050565b6000611a236023836120ea565b91507f596f75206861766520746f20627579206d6f7265207468616e203020746f6b6560008301527f6e732100000000000000000000000000000000000000000000000000000000006020830152604082019050919050565b6000611a896018836120ea565b91507f49434f2073616c65206e6f7420636c6f736564207965742100000000000000006000830152602082019050919050565b6000611ac9601a836120ea565b91507f436865636b2074686520746f6b656e20616c6c6f77616e63652e0000000000006000830152602082019050919050565b6000611b09601f836120ea565b91507f596f752068617665206e6f7420626f7567687420616e7920746f6b656e7321006000830152602082019050919050565b6000611b496028836120ea565b91507f53616c6520636c6f73696e672064617465206d75737420626520696e2074686560008301527f20667574757265210000000000000000000000000000000000000000000000006020830152604082019050919050565b6000611baf601c836120ea565b91507f72617465206d7573742062652067726561746572207468616e203021000000006000830152602082019050919050565b6000611bef602a836120ea565b91507f53616c6520776974682070726f7669646564206164647265737320646f65732060008301527f6e6f742065786973742e000000000000000000000000000000000000000000006020830152604082019050919050565b6000611c556019836120ea565b91507f546f6b656e2073616c6520697320636c6f736564206e6f772e000000000000006000830152602082019050919050565b606082016000820151611c9e6000850182611787565b506020820151611cb16020850182611cca565b506040820151611cc46040850182611cca565b50505050565b611cd38161224e565b82525050565b611ce28161224e565b82525050565b6000602082019050611cfd6000830184611796565b92915050565b6000604082019050611d186000830185611796565b611d256020830184611796565b9392505050565b6000606082019050611d416000830186611796565b611d4e6020830185611796565b611d5b6040830184611cd9565b949350505050565b6000604082019050611d786000830185611796565b611d856020830184611cd9565b9392505050565b60006020820190508181036000830152611da681846117a5565b905092915050565b6000602082019050611dc36000830184611803565b92915050565b6000602082019050611dde6000830184611812565b92915050565b60006020820190508181036000830152611dfd81611830565b9050919050565b60006020820190508181036000830152611e1d81611870565b9050919050565b60006020820190508181036000830152611e3d816118b0565b9050919050565b60006020820190508181036000830152611e5d816118f0565b9050919050565b60006020820190508181036000830152611e7d81611930565b9050919050565b60006020820190508181036000830152611e9d81611970565b9050919050565b60006020820190508181036000830152611ebd816119d6565b9050919050565b60006020820190508181036000830152611edd81611a16565b9050919050565b60006020820190508181036000830152611efd81611a7c565b9050919050565b60006020820190508181036000830152611f1d81611abc565b9050919050565b60006020820190508181036000830152611f3d81611afc565b9050919050565b60006020820190508181036000830152611f5d81611b3c565b9050919050565b60006020820190508181036000830152611f7d81611ba2565b9050919050565b60006020820190508181036000830152611f9d81611be2565b9050919050565b60006020820190508181036000830152611fbd81611c48565b9050919050565b6000606082019050611fd96000830184611c88565b92915050565b6000602082019050611ff46000830184611cd9565b92915050565b600060a08201905061200f6000830188611cd9565b61201c6020830187611821565b818103604083015261202e81866117a5565b905061203d6060830185611796565b61204a6080830184611cd9565b9695505050505050565b6000604051905081810181811067ffffffffffffffff8211171561207b5761207a6122ec565b5b8060405250919050565b600067ffffffffffffffff8211156120a05761209f6122ec565b5b602082029050602081019050919050565b6000819050602082019050919050565b600081519050919050565b6000602082019050919050565b600082825260208201905092915050565b600082825260208201905092915050565b60006121068261224e565b91506121118361224e565b9250827fffffffffffffffffffffffffffffffffffffffffffffffffffffffffffffffff038211156121465761214561228e565b5b828201905092915050565b600061215c8261224e565b91506121678361224e565b925082612177576121766122bd565b5b828204905092915050565b600061218d8261224e565b91506121988361224e565b9250817fffffffffffffffffffffffffffffffffffffffffffffffffffffffffffffffff04831182151516156121d1576121d061228e565b5b828202905092915050565b60006121e78261224e565b91506121f28361224e565b9250828210156122055761220461228e565b5b828203905092915050565b600061221b8261222e565b9050919050565b60008115159050919050565b600073ffffffffffffffffffffffffffffffffffffffff82169050919050565b6000819050919050565b60006122638261226a565b9050919050565b60006122758261222e565b9050919050565b60006122878261224e565b9050919050565b7f4e487b7100000000000000000000000000000000000000000000000000000000600052601160045260246000fd5b7f4e487b7100000000000000000000000000000000000000000000000000000000600052601260045260246000fd5b7f4e487b7100000000000000000000000000000000000000000000000000000000600052604160045260246000fd5b61232481612210565b811461232f57600080fd5b50565b61233b81612222565b811461234657600080fd5b50565b6123528161224e565b811461235d57600080fd5b5056fea2646970667358221220b041237b6644dabf9dd1da2236c5215f6421eb81f3cf5f5e2e444e38f1825b8664736f6c63430008000033",
  "linkReferences": {},
  "deployedLinkReferences": {}
}